{
  "_format": "hh-sol-artifact-1",
  "contractName": "SwapToken",
  "sourceName": "contracts/SwapToken.sol",
  "abi": [
    {
      "inputs": [
        {
          "internalType": "contract IERC20",
          "name": "_celloTokenCAddr",
          "type": "address"
        },
        {
          "internalType": "contract IERC20",
          "name": "_usdtTokenCAddr",
          "type": "address"
        }
      ],
      "stateMutability": "nonpayable",
      "type": "constructor"
    },
    {
      "anonymous": false,
      "inputs": [
        {
          "indexed": true,
          "internalType": "address",
          "name": "from",
          "type": "address"
        },
        {
          "indexed": true,
          "internalType": "address",
          "name": "to",
          "type": "address"
        },
        {
          "indexed": false,
          "internalType": "uint256",
          "name": "amount",
          "type": "uint256"
        }
      ],
      "name": "SwapSuccessful",
      "type": "event"
    },
    {
      "anonymous": false,
      "inputs": [
        {
          "indexed": true,
          "internalType": "address",
          "name": "owner",
          "type": "address"
        },
        {
          "indexed": true,
          "internalType": "enum SwapToken.Currency",
          "name": "_currencyName",
          "type": "uint8"
        },
        {
          "indexed": false,
          "internalType": "uint256",
          "name": "amount",
          "type": "uint256"
        }
      ],
      "name": "WithdrawSuccessful",
      "type": "event"
    },
    {
      "inputs": [],
      "name": "celloToken",
      "outputs": [
        {
          "internalType": "contract IERC20",
          "name": "",
          "type": "address"
        }
      ],
      "stateMutability": "view",
      "type": "function"
    },
    {
      "inputs": [],
      "name": "getContractBalance",
      "outputs": [
        {
          "internalType": "uint256",
          "name": "contractUsdtbal_",
          "type": "uint256"
        },
        {
          "internalType": "uint256",
          "name": "contractNairabal_",
          "type": "uint256"
        }
      ],
      "stateMutability": "view",
      "type": "function"
    },
    {
      "inputs": [
        {
          "internalType": "address",
          "name": "_from",
          "type": "address"
        },
        {
          "internalType": "uint256",
          "name": "_amount",
          "type": "uint256"
        }
      ],
      "name": "swapCelloToUsdt",
      "outputs": [],
      "stateMutability": "nonpayable",
      "type": "function"
    },
    {
      "inputs": [
        {
          "internalType": "address",
          "name": "_from",
          "type": "address"
        },
        {
          "internalType": "uint256",
          "name": "_amount",
          "type": "uint256"
        }
      ],
      "name": "swapUsdtToCello",
      "outputs": [],
      "stateMutability": "nonpayable",
      "type": "function"
    },
    {
      "inputs": [],
      "name": "usdtToken",
      "outputs": [
        {
          "internalType": "contract IERC20",
          "name": "",
          "type": "address"
        }
      ],
      "stateMutability": "view",
      "type": "function"
    }
  ],
  "bytecode": "0x608060405234801561001057600080fd5b5060405161195438038061195483398181016040528101906100329190610170565b816000806101000a81548173ffffffffffffffffffffffffffffffffffffffff021916908373ffffffffffffffffffffffffffffffffffffffff16021790555080600160006101000a81548173ffffffffffffffffffffffffffffffffffffffff021916908373ffffffffffffffffffffffffffffffffffffffff16021790555033600260006101000a81548173ffffffffffffffffffffffffffffffffffffffff021916908373ffffffffffffffffffffffffffffffffffffffff16021790555050506101b0565b600080fd5b600073ffffffffffffffffffffffffffffffffffffffff82169050919050565b600061012b82610100565b9050919050565b600061013d82610120565b9050919050565b61014d81610132565b811461015857600080fd5b50565b60008151905061016a81610144565b92915050565b60008060408385031215610187576101866100fb565b5b60006101958582860161015b565b92505060206101a68582860161015b565b9150509250929050565b611795806101bf6000396000f3fe608060405234801561001057600080fd5b50600436106100575760003560e01c80632d9b09d41461005c5780636f9fb98a146100785780637deba1be14610097578063a98ad46c146100b3578063ca64b437146100d1575b600080fd5b61007660048036038101906100719190610fe7565b6100ef565b005b6100806106b0565b60405161008e929190611036565b60405180910390f35b6100b160048036038101906100ac9190610fe7565b610881565b005b6100bb610e3f565b6040516100c891906110be565b60405180910390f35b6100d9610e65565b6040516100e691906110be565b60405180910390f35b600260149054906101000a900460ff161561013f576040517f08c379a000000000000000000000000000000000000000000000000000000000815260040161013690611136565b60405180910390fd5b6001600260146101000a81548160ff021916908315150217905550600073ffffffffffffffffffffffffffffffffffffffff163373ffffffffffffffffffffffffffffffffffffffff16036101c9576040517f08c379a00000000000000000000000000000000000000000000000000000000081526004016101c0906111a2565b60405180910390fd5b6000811161020c576040517f08c379a00000000000000000000000000000000000000000000000000000000081526004016102039061120e565b60405180910390fd5b6000670de0b6b3a764000082610222919061125d565b905060008060009054906101000a900473ffffffffffffffffffffffffffffffffffffffff1673ffffffffffffffffffffffffffffffffffffffff166370a08231336040518263ffffffff1660e01b815260040161028091906112ae565b602060405180830381865afa15801561029d573d6000803e3d6000fd5b505050506040513d601f19601f820116820180604052508101906102c191906112de565b905082811015610306576040517f08c379a00000000000000000000000000000000000000000000000000000000081526004016102fd90611357565b60405180910390fd5b60008060009054906101000a900473ffffffffffffffffffffffffffffffffffffffff1673ffffffffffffffffffffffffffffffffffffffff1663dd62ed3e33306040518363ffffffff1660e01b8152600401610364929190611377565b602060405180830381865afa158015610381573d6000803e3d6000fd5b505050506040513d601f19601f820116820180604052508101906103a591906112de565b9050838110156103ea576040517f08c379a00000000000000000000000000000000000000000000000000000000081526004016103e1906113ec565b60405180910390fd5b60008060009054906101000a900473ffffffffffffffffffffffffffffffffffffffff1673ffffffffffffffffffffffffffffffffffffffff166323b872dd8730876040518463ffffffff1660e01b815260040161044a9392919061140c565b6020604051808303816000875af1158015610469573d6000803e3d6000fd5b505050506040513d601f19601f8201168201806040525081019061048d919061147b565b9050806104cf576040517f08c379a00000000000000000000000000000000000000000000000000000000081526004016104c6906114f4565b60405180910390fd5b8360036000600160028111156104e8576104e7611514565b5b60028111156104fa576104f9611514565b5b815260200190815260200160002060008282546105179190611543565b92505081905550600061052b856001610e89565b90506000600160009054906101000a900473ffffffffffffffffffffffffffffffffffffffff1673ffffffffffffffffffffffffffffffffffffffff1663a9059cbb33846040518363ffffffff1660e01b815260040161058c929190611577565b6020604051808303816000875af11580156105ab573d6000803e3d6000fd5b505050506040513d601f19601f820116820180604052508101906105cf919061147b565b9050801561068b5781600360006002808111156105ef576105ee611514565b5b600281111561060157610600611514565b5b8152602001908152602001600020600082825461061e9190611543565b925050819055503073ffffffffffffffffffffffffffffffffffffffff168873ffffffffffffffffffffffffffffffffffffffff167ff936e5e0223c6f3d59c5cad7723aaa9b2b2d68a54065aed03ad5e38675f1f3068860405161068291906115a0565b60405180910390a35b5050505050506000600260146101000a81548160ff0219169083151502179055505050565b600080600260009054906101000a900473ffffffffffffffffffffffffffffffffffffffff1673ffffffffffffffffffffffffffffffffffffffff163373ffffffffffffffffffffffffffffffffffffffff1614610743576040517f08c379a000000000000000000000000000000000000000000000000000000000815260040161073a90611607565b60405180910390fd5b600160009054906101000a900473ffffffffffffffffffffffffffffffffffffffff1673ffffffffffffffffffffffffffffffffffffffff166370a08231306040518263ffffffff1660e01b815260040161079e91906112ae565b602060405180830381865afa1580156107bb573d6000803e3d6000fd5b505050506040513d601f19601f820116820180604052508101906107df91906112de565b915060008054906101000a900473ffffffffffffffffffffffffffffffffffffffff1673ffffffffffffffffffffffffffffffffffffffff166370a08231306040518263ffffffff1660e01b815260040161083a91906112ae565b602060405180830381865afa158015610857573d6000803e3d6000fd5b505050506040513d601f19601f8201168201806040525081019061087b91906112de565b90509091565b600260149054906101000a900460ff16156108d1576040517f08c379a00000000000000000000000000000000000000000000000000000000081526004016108c890611136565b60405180910390fd5b6001600260146101000a81548160ff021916908315150217905550600073ffffffffffffffffffffffffffffffffffffffff163373ffffffffffffffffffffffffffffffffffffffff160361095b576040517f08c379a0000000000000000000000000000000000000000000000000000000008152600401610952906111a2565b60405180910390fd5b6000811161099e576040517f08c379a00000000000000000000000000000000000000000000000000000000081526004016109959061120e565b60405180910390fd5b6000620f4240826109af919061125d565b90506000600160009054906101000a900473ffffffffffffffffffffffffffffffffffffffff1673ffffffffffffffffffffffffffffffffffffffff166370a08231336040518263ffffffff1660e01b8152600401610a0e91906112ae565b602060405180830381865afa158015610a2b573d6000803e3d6000fd5b505050506040513d601f19601f82011682018060405250810190610a4f91906112de565b905081811015610a94576040517f08c379a0000000000000000000000000000000000000000000000000000000008152600401610a8b90611357565b60405180910390fd5b6000600160009054906101000a900473ffffffffffffffffffffffffffffffffffffffff1673ffffffffffffffffffffffffffffffffffffffff1663dd62ed3e33306040518363ffffffff1660e01b8152600401610af3929190611377565b602060405180830381865afa158015610b10573d6000803e3d6000fd5b505050506040513d601f19601f82011682018060405250810190610b3491906112de565b905082811015610b79576040517f08c379a0000000000000000000000000000000000000000000000000000000008152600401610b70906113ec565b60405180910390fd5b6000600160009054906101000a900473ffffffffffffffffffffffffffffffffffffffff1673ffffffffffffffffffffffffffffffffffffffff166323b872dd8730876040518463ffffffff1660e01b8152600401610bda9392919061140c565b6020604051808303816000875af1158015610bf9573d6000803e3d6000fd5b505050506040513d601f19601f82011682018060405250810190610c1d919061147b565b905080610c5f576040517f08c379a0000000000000000000000000000000000000000000000000000000008152600401610c5690611673565b60405180910390fd5b8360036000600280811115610c7757610c76611514565b5b6002811115610c8957610c88611514565b5b81526020019081526020016000206000828254610ca69190611543565b925050819055506000610cba856002610e89565b905060008060009054906101000a900473ffffffffffffffffffffffffffffffffffffffff1673ffffffffffffffffffffffffffffffffffffffff1663a9059cbb33846040518363ffffffff1660e01b8152600401610d1a929190611577565b6020604051808303816000875af1158015610d39573d6000803e3d6000fd5b505050506040513d601f19601f82011682018060405250810190610d5d919061147b565b90508015610e1a57816003600060016002811115610d7e57610d7d611514565b5b6002811115610d9057610d8f611514565b5b81526020019081526020016000206000828254610dad9190611543565b925050819055503073ffffffffffffffffffffffffffffffffffffffff168873ffffffffffffffffffffffffffffffffffffffff167ff936e5e0223c6f3d59c5cad7723aaa9b2b2d68a54065aed03ad5e38675f1f30688604051610e1191906115a0565b60405180910390a35b5050505050506000600260146101000a81548160ff0219169083151502179055505050565b600160009054906101000a900473ffffffffffffffffffffffffffffffffffffffff1681565b60008054906101000a900473ffffffffffffffffffffffffffffffffffffffff1681565b6000600280811115610e9e57610e9d611514565b5b826002811115610eb157610eb0611514565b5b03610ecb576107d083610ec4919061125d565b9050610f48565b60016002811115610edf57610ede611514565b5b826002811115610ef257610ef1611514565b5b03610f0c576107d083610f0591906116c2565b9050610f47565b6040517f08c379a0000000000000000000000000000000000000000000000000000000008152600401610f3e9061173f565b60405180910390fd5b5b92915050565b600080fd5b600073ffffffffffffffffffffffffffffffffffffffff82169050919050565b6000610f7e82610f53565b9050919050565b610f8e81610f73565b8114610f9957600080fd5b50565b600081359050610fab81610f85565b92915050565b6000819050919050565b610fc481610fb1565b8114610fcf57600080fd5b50565b600081359050610fe181610fbb565b92915050565b60008060408385031215610ffe57610ffd610f4e565b5b600061100c85828601610f9c565b925050602061101d85828601610fd2565b9150509250929050565b61103081610fb1565b82525050565b600060408201905061104b6000830185611027565b6110586020830184611027565b9392505050565b6000819050919050565b600061108461107f61107a84610f53565b61105f565b610f53565b9050919050565b600061109682611069565b9050919050565b60006110a88261108b565b9050919050565b6110b88161109d565b82525050565b60006020820190506110d360008301846110af565b92915050565b600082825260208201905092915050565b7f5265656e7472616e6379206e6f7420616c6c6f77656400000000000000000000600082015250565b60006111206016836110d9565b915061112b826110ea565b602082019050919050565b6000602082019050818103600083015261114f81611113565b9050919050565b7f5a65726f206e6f7420616c6c6f77656400000000000000000000000000000000600082015250565b600061118c6010836110d9565b915061119782611156565b602082019050919050565b600060208201905081810360008301526111bb8161117f565b9050919050565b7f43616e6e6f742073776170207a65726f20616d6f756e74000000000000000000600082015250565b60006111f86017836110d9565b9150611203826111c2565b602082019050919050565b60006020820190508181036000830152611227816111eb565b9050919050565b7f4e487b7100000000000000000000000000000000000000000000000000000000600052601160045260246000fd5b600061126882610fb1565b915061127383610fb1565b925082820261128181610fb1565b915082820484148315176112985761129761122e565b5b5092915050565b6112a881610f73565b82525050565b60006020820190506112c3600083018461129f565b92915050565b6000815190506112d881610fbb565b92915050565b6000602082840312156112f4576112f3610f4e565b5b6000611302848285016112c9565b91505092915050565b7f596f75722062616c616e6365206973206e6f7420656e6f756768000000000000600082015250565b6000611341601a836110d9565b915061134c8261130b565b602082019050919050565b6000602082019050818103600083015261137081611334565b9050919050565b600060408201905061138c600083018561129f565b611399602083018461129f565b9392505050565b7f546f6b656e20616c6c6f77616e636520746f6f206c6f77000000000000000000600082015250565b60006113d66017836110d9565b91506113e1826113a0565b602082019050919050565b60006020820190508181036000830152611405816113c9565b9050919050565b6000606082019050611421600083018661129f565b61142e602083018561129f565b61143b6040830184611027565b949350505050565b60008115159050919050565b61145881611443565b811461146357600080fd5b50565b6000815190506114758161144f565b92915050565b60006020828403121561149157611490610f4e565b5b600061149f84828501611466565b91505092915050565b7f4578637574696f6e206661696c65640000000000000000000000000000000000600082015250565b60006114de600f836110d9565b91506114e9826114a8565b602082019050919050565b6000602082019050818103600083015261150d816114d1565b9050919050565b7f4e487b7100000000000000000000000000000000000000000000000000000000600052602160045260246000fd5b600061154e82610fb1565b915061155983610fb1565b92508282019050808211156115715761157061122e565b5b92915050565b600060408201905061158c600083018561129f565b6115996020830184611027565b9392505050565b60006020820190506115b56000830184611027565b92915050565b7f4f6e6c79206f776e65722063616e206163636573730000000000000000000000600082015250565b60006115f16015836110d9565b91506115fc826115bb565b602082019050919050565b60006020820190508181036000830152611620816115e4565b9050919050565b7f457865637574696f6e206661696c656400000000000000000000000000000000600082015250565b600061165d6010836110d9565b915061166882611627565b602082019050919050565b6000602082019050818103600083015261168c81611650565b9050919050565b7f4e487b7100000000000000000000000000000000000000000000000000000000600052601260045260246000fd5b60006116cd82610fb1565b91506116d883610fb1565b9250826116e8576116e7611693565b5b828204905092915050565b7f556e737570706f727465642063757272656e6379000000000000000000000000600082015250565b60006117296014836110d9565b9150611734826116f3565b602082019050919050565b600060208201905081810360008301526117588161171c565b905091905056fea2646970667358221220b98a19c95743ad7eca2e55ce96894230359f123645965a74515ce4d2c007a9b564736f6c634300081b0033",
  "linkReferences": {},
  "deployedLinkReferences": {}
}